{
  "_format": "hh-sol-artifact-1",
  "contractName": "AssetFactory",
  "sourceName": "contracts/AssetFactory.sol",
  "abi": [
    {
      "inputs": [],
      "stateMutability": "nonpayable",
      "type": "constructor"
    },
    {
      "inputs": [
        {
          "internalType": "address",
          "name": "owner",
          "type": "address"
        }
      ],
      "name": "OwnableInvalidOwner",
      "type": "error"
    },
    {
      "inputs": [
        {
          "internalType": "address",
          "name": "account",
          "type": "address"
        }
      ],
      "name": "OwnableUnauthorizedAccount",
      "type": "error"
    },
    {
      "anonymous": false,
      "inputs": [
        {
          "indexed": true,
          "internalType": "address",
          "name": "assetAddress",
          "type": "address"
        },
        {
          "indexed": false,
          "internalType": "string",
          "name": "name",
          "type": "string"
        },
        {
          "indexed": false,
          "internalType": "string",
          "name": "symbol",
          "type": "string"
        },
        {
          "indexed": false,
          "internalType": "uint256",
          "name": "maxSupply",
          "type": "uint256"
        },
        {
          "indexed": false,
          "internalType": "uint256",
          "name": "price",
          "type": "uint256"
        }
      ],
      "name": "AssetCreated",
      "type": "event"
    },
    {
      "anonymous": false,
      "inputs": [
        {
          "indexed": true,
          "internalType": "address",
          "name": "previousOwner",
          "type": "address"
        },
        {
          "indexed": true,
          "internalType": "address",
          "name": "newOwner",
          "type": "address"
        }
      ],
      "name": "OwnershipTransferred",
      "type": "event"
    },
    {
      "inputs": [
        {
          "internalType": "string",
          "name": "_name",
          "type": "string"
        },
        {
          "internalType": "string",
          "name": "_symbol",
          "type": "string"
        },
        {
          "internalType": "uint256",
          "name": "_maxSupply",
          "type": "uint256"
        },
        {
          "internalType": "uint256",
          "name": "_price",
          "type": "uint256"
        },
        {
          "internalType": "address",
          "name": "_paymentToken",
          "type": "address"
        }
      ],
      "name": "createAsset",
      "outputs": [
        {
          "internalType": "address",
          "name": "",
          "type": "address"
        }
      ],
      "stateMutability": "nonpayable",
      "type": "function"
    },
    {
      "inputs": [],
      "name": "owner",
      "outputs": [
        {
          "internalType": "address",
          "name": "",
          "type": "address"
        }
      ],
      "stateMutability": "view",
      "type": "function"
    },
    {
      "inputs": [],
      "name": "renounceOwnership",
      "outputs": [],
      "stateMutability": "nonpayable",
      "type": "function"
    },
    {
      "inputs": [
        {
          "internalType": "address",
          "name": "newOwner",
          "type": "address"
        }
      ],
      "name": "transferOwnership",
      "outputs": [],
      "stateMutability": "nonpayable",
      "type": "function"
    }
  ],
  "bytecode": "0x608060405234801561001057600080fd5b5033600073ffffffffffffffffffffffffffffffffffffffff168173ffffffffffffffffffffffffffffffffffffffff16036100845760006040517f1e4fbdf700000000000000000000000000000000000000000000000000000000815260040161007b919061019e565b60405180910390fd5b6100938161009960201b60201c565b506101b9565b60008060009054906101000a900473ffffffffffffffffffffffffffffffffffffffff169050816000806101000a81548173ffffffffffffffffffffffffffffffffffffffff021916908373ffffffffffffffffffffffffffffffffffffffff1602179055508173ffffffffffffffffffffffffffffffffffffffff168173ffffffffffffffffffffffffffffffffffffffff167f8be0079c531659141344cd1fd0a4f28419497f9722a3daafe3b4186f6b6457e060405160405180910390a35050565b600073ffffffffffffffffffffffffffffffffffffffff82169050919050565b60006101888261015d565b9050919050565b6101988161017d565b82525050565b60006020820190506101b3600083018461018f565b92915050565b613b6c806101c86000396000f3fe608060405234801561001057600080fd5b506004361061004c5760003560e01c8063715018a6146100515780638da5cb5b1461005b57806398a6130014610079578063f2fde38b146100a9575b600080fd5b6100596100c5565b005b6100636100d9565b60405161007091906103d6565b60405180910390f35b610093600480360381019061008e91906105ad565b610102565b6040516100a091906103d6565b60405180910390f35b6100c360048036038101906100be9190610660565b6101af565b005b6100cd610235565b6100d760006102bc565b565b60008060009054906101000a900473ffffffffffffffffffffffffffffffffffffffff16905090565b600061010c610235565b600086868686863360405161012090610388565b61012f9695949392919061071b565b604051809103906000f08015801561014b573d6000803e3d6000fd5b5090508073ffffffffffffffffffffffffffffffffffffffff167f37016c0dc06eb6ed987709edadbb2d459e43a72e3364b0894215a6c3f9735e3b8888888860405161019a949392919061078a565b60405180910390a28091505095945050505050565b6101b7610235565b600073ffffffffffffffffffffffffffffffffffffffff168173ffffffffffffffffffffffffffffffffffffffff16036102295760006040517f1e4fbdf700000000000000000000000000000000000000000000000000000000815260040161022091906103d6565b60405180910390fd5b610232816102bc565b50565b61023d610380565b73ffffffffffffffffffffffffffffffffffffffff1661025b6100d9565b73ffffffffffffffffffffffffffffffffffffffff16146102ba5761027e610380565b6040517f118cdaa70000000000000000000000000000000000000000000000000000000081526004016102b191906103d6565b60405180910390fd5b565b60008060009054906101000a900473ffffffffffffffffffffffffffffffffffffffff169050816000806101000a81548173ffffffffffffffffffffffffffffffffffffffff021916908373ffffffffffffffffffffffffffffffffffffffff1602179055508173ffffffffffffffffffffffffffffffffffffffff168173ffffffffffffffffffffffffffffffffffffffff167f8be0079c531659141344cd1fd0a4f28419497f9722a3daafe3b4186f6b6457e060405160405180910390a35050565b600033905090565b613359806107de83390190565b600073ffffffffffffffffffffffffffffffffffffffff82169050919050565b60006103c082610395565b9050919050565b6103d0816103b5565b82525050565b60006020820190506103eb60008301846103c7565b92915050565b6000604051905090565b600080fd5b600080fd5b600080fd5b600080fd5b6000601f19601f8301169050919050565b7f4e487b7100000000000000000000000000000000000000000000000000000000600052604160045260246000fd5b6104588261040f565b810181811067ffffffffffffffff8211171561047757610476610420565b5b80604052505050565b600061048a6103f1565b9050610496828261044f565b919050565b600067ffffffffffffffff8211156104b6576104b5610420565b5b6104bf8261040f565b9050602081019050919050565b82818337600083830152505050565b60006104ee6104e98461049b565b610480565b90508281526020810184848401111561050a5761050961040a565b5b6105158482856104cc565b509392505050565b600082601f83011261053257610531610405565b5b81356105428482602086016104db565b91505092915050565b6000819050919050565b61055e8161054b565b811461056957600080fd5b50565b60008135905061057b81610555565b92915050565b61058a816103b5565b811461059557600080fd5b50565b6000813590506105a781610581565b92915050565b600080600080600060a086880312156105c9576105c86103fb565b5b600086013567ffffffffffffffff8111156105e7576105e6610400565b5b6105f38882890161051d565b955050602086013567ffffffffffffffff81111561061457610613610400565b5b6106208882890161051d565b94505060406106318882890161056c565b93505060606106428882890161056c565b925050608061065388828901610598565b9150509295509295909350565b600060208284031215610676576106756103fb565b5b600061068484828501610598565b91505092915050565b600081519050919050565b600082825260208201905092915050565b60005b838110156106c75780820151818401526020810190506106ac565b60008484015250505050565b60006106de8261068d565b6106e88185610698565b93506106f88185602086016106a9565b6107018161040f565b840191505092915050565b6107158161054b565b82525050565b600060c082019050818103600083015261073581896106d3565b9050818103602083015261074981886106d3565b9050610758604083018761070c565b610765606083018661070c565b61077260808301856103c7565b61077f60a08301846103c7565b979650505050505050565b600060808201905081810360008301526107a481876106d3565b905081810360208301526107b881866106d3565b90506107c7604083018561070c565b6107d4606083018461070c565b9594505050505056fe608060405234801561001057600080fd5b5060405161335938038061335983398181016040528101906100329190610470565b8086868160039081610044919061074c565b508060049081610054919061074c565b505050600073ffffffffffffffffffffffffffffffffffffffff168173ffffffffffffffffffffffffffffffffffffffff16036100c95760006040517f1e4fbdf70000000000000000000000000000000000000000000000000000000081526004016100c0919061082d565b60405180910390fd5b6100d8816101a160201b60201c565b506000841161011c576040517f08c379a0000000000000000000000000000000000000000000000000000000008152600401610113906108a5565b60405180910390fd5b836007819055508260088190555081600660006101000a81548173ffffffffffffffffffffffffffffffffffffffff021916908373ffffffffffffffffffffffffffffffffffffffff1602179055506000600560146101000a81548160ff02191690836002811115610191576101906108c5565b5b02179055505050505050506108f4565b6000600560009054906101000a900473ffffffffffffffffffffffffffffffffffffffff16905081600560006101000a81548173ffffffffffffffffffffffffffffffffffffffff021916908373ffffffffffffffffffffffffffffffffffffffff1602179055508173ffffffffffffffffffffffffffffffffffffffff168173ffffffffffffffffffffffffffffffffffffffff167f8be0079c531659141344cd1fd0a4f28419497f9722a3daafe3b4186f6b6457e060405160405180910390a35050565b6000604051905090565b600080fd5b600080fd5b600080fd5b600080fd5b6000601f19601f8301169050919050565b7f4e487b7100000000000000000000000000000000000000000000000000000000600052604160045260246000fd5b6102ce82610285565b810181811067ffffffffffffffff821117156102ed576102ec610296565b5b80604052505050565b6000610300610267565b905061030c82826102c5565b919050565b600067ffffffffffffffff82111561032c5761032b610296565b5b61033582610285565b9050602081019050919050565b60005b83811015610360578082015181840152602081019050610345565b60008484015250505050565b600061037f61037a84610311565b6102f6565b90508281526020810184848401111561039b5761039a610280565b5b6103a6848285610342565b509392505050565b600082601f8301126103c3576103c261027b565b5b81516103d384826020860161036c565b91505092915050565b6000819050919050565b6103ef816103dc565b81146103fa57600080fd5b50565b60008151905061040c816103e6565b92915050565b600073ffffffffffffffffffffffffffffffffffffffff82169050919050565b600061043d82610412565b9050919050565b61044d81610432565b811461045857600080fd5b50565b60008151905061046a81610444565b92915050565b60008060008060008060c0878903121561048d5761048c610271565b5b600087015167ffffffffffffffff8111156104ab576104aa610276565b5b6104b789828a016103ae565b965050602087015167ffffffffffffffff8111156104d8576104d7610276565b5b6104e489828a016103ae565b95505060406104f589828a016103fd565b945050606061050689828a016103fd565b935050608061051789828a0161045b565b92505060a061052889828a0161045b565b9150509295509295509295565b600081519050919050565b7f4e487b7100000000000000000000000000000000000000000000000000000000600052602260045260246000fd5b6000600282049050600182168061058757607f821691505b60208210810361059a57610599610540565b5b50919050565b60008190508160005260206000209050919050565b60006020601f8301049050919050565b600082821b905092915050565b6000600883026106027fffffffffffffffffffffffffffffffffffffffffffffffffffffffffffffffff826105c5565b61060c86836105c5565b95508019841693508086168417925050509392505050565b6000819050919050565b600061064961064461063f846103dc565b610624565b6103dc565b9050919050565b6000819050919050565b6106638361062e565b61067761066f82610650565b8484546105d2565b825550505050565b600090565b61068c61067f565b61069781848461065a565b505050565b5b818110156106bb576106b0600082610684565b60018101905061069d565b5050565b601f821115610700576106d1816105a0565b6106da846105b5565b810160208510156106e9578190505b6106fd6106f5856105b5565b83018261069c565b50505b505050565b600082821c905092915050565b600061072360001984600802610705565b1980831691505092915050565b600061073c8383610712565b9150826002028217905092915050565b61075582610535565b67ffffffffffffffff81111561076e5761076d610296565b5b610778825461056f565b6107838282856106bf565b600060209050601f8311600181146107b657600084156107a4578287015190505b6107ae8582610730565b865550610816565b601f1984166107c4866105a0565b60005b828110156107ec578489015182556001820191506020850194506020810190506107c7565b868310156108095784890151610805601f891682610712565b8355505b6001600288020188555050505b505050505050565b61082781610432565b82525050565b6000602082019050610842600083018461081e565b92915050565b600082825260208201905092915050565b7f4d617820737570706c79206d757374206265203e203000000000000000000000600082015250565b600061088f601683610848565b915061089a82610859565b602082019050919050565b600060208201905081810360008301526108be81610882565b9050919050565b7f4e487b7100000000000000000000000000000000000000000000000000000000600052602160045260246000fd5b612a56806109036000396000f3fe608060405234801561001057600080fd5b50600436106101735760003560e01c806370a08231116100de578063a9059cbb11610097578063d5abeb0111610071578063d5abeb01146103f6578063d96a094a14610414578063dd62ed3e14610430578063f2fde38b1461046057610173565b8063a9059cbb146103b2578063bc656b84146103e2578063be040fb0146103ec57610173565b806370a0823114610300578063715018a6146103305780637b1b1de61461033a57806389535dec146103585780638da5cb5b1461037657806395d89b411461039457610173565b80630f7256de116101305780630f7256de1461025057806318160ddd1461026c57806323b872dd1461028a5780633013ce29146102ba578063313ce567146102d85780633174b689146102f657610173565b8063066f41081461017857806306fdde0314610196578063095ea7b3146101b457806309eef43e146101e45780630b661857146102145780630c3f6acf14610232575b600080fd5b61018061047c565b60405161018d9190611bc4565b60405180910390f35b61019e610482565b6040516101ab9190611c6f565b60405180910390f35b6101ce60048036038101906101c99190611d20565b610514565b6040516101db9190611d7b565b60405180910390f35b6101fe60048036038101906101f99190611d96565b610537565b60405161020b9190611d7b565b60405180910390f35b61021c610557565b6040516102299190611bc4565b60405180910390f35b61023a61055c565b6040516102479190611e3a565b60405180910390f35b61026a60048036038101906102659190611e55565b61056f565b005b610274610793565b6040516102819190611bc4565b60405180910390f35b6102a4600480360381019061029f9190611e82565b61079d565b6040516102b19190611d7b565b60405180910390f35b6102c26107cc565b6040516102cf9190611f34565b60405180910390f35b6102e06107f2565b6040516102ed9190611f6b565b60405180910390f35b6102fe6107fb565b005b61031a60048036038101906103159190611d96565b6109cc565b6040516103279190611bc4565b60405180910390f35b610338610a14565b005b610342610a28565b60405161034f9190611bc4565b60405180910390f35b610360610a2e565b60405161036d9190611bc4565b60405180910390f35b61037e610a34565b60405161038b9190611f95565b60405180910390f35b61039c610a5e565b6040516103a99190611c6f565b60405180910390f35b6103cc60048036038101906103c79190611d20565b610af0565b6040516103d99190611d7b565b60405180910390f35b6103ea610b13565b005b6103f4610db9565b005b6103fe610fcd565b60405161040b9190611bc4565b60405180910390f35b61042e60048036038101906104299190611e55565b610fd3565b005b61044a60048036038101906104459190611fb0565b6112ae565b6040516104579190611bc4565b60405180910390f35b61047a60048036038101906104759190611d96565b611335565b005b60095481565b6060600380546104919061201f565b80601f01602080910402602001604051908101604052809291908181526020018280546104bd9061201f565b801561050a5780601f106104df5761010080835404028352916020019161050a565b820191906000526020600020905b8154815290600101906020018083116104ed57829003601f168201915b5050505050905090565b60008061051f6113bb565b905061052c8185856113c3565b600191505092915050565b600a6020528060005260406000206000915054906101000a900460ff1681565b603281565b600560149054906101000a900460ff1681565b6105776113d5565b6001600281111561058b5761058a611dc3565b5b600560149054906101000a900460ff1660028111156105ad576105ac611dc3565b5b146105ed576040517f08c379a00000000000000000000000000000000000000000000000000000000081526004016105e4906120c2565b60405180910390fd5b60008111610630576040517f08c379a00000000000000000000000000000000000000000000000000000000081526004016106279061212e565b60405180910390fd5b600660009054906101000a900473ffffffffffffffffffffffffffffffffffffffff1673ffffffffffffffffffffffffffffffffffffffff166323b872dd3330846040518463ffffffff1660e01b815260040161068f9392919061214e565b6020604051808303816000875af11580156106ae573d6000803e3d6000fd5b505050506040513d601f19601f820116820180604052508101906106d291906121b1565b610711576040517f08c379a00000000000000000000000000000000000000000000000000000000081526004016107089061222a565b60405180910390fd5b610719610793565b8161072491906122a8565b6009819055506002600560146101000a81548160ff021916908360028111156107505761074f611dc3565b5b02179055507fd7166bacc26c6d02e55b86977def76d86219f8883b7e77b3f3446f6589eb3535816009546040516107889291906122d9565b60405180910390a150565b6000600254905090565b6000806107a86113bb565b90506107b585828561145c565b6107c08585856114f1565b60019150509392505050565b600660009054906101000a900473ffffffffffffffffffffffffffffffffffffffff1681565b60006012905090565b6000600281111561080f5761080e611dc3565b5b600560149054906101000a900460ff16600281111561083157610830611dc3565b5b14610871576040517f08c379a00000000000000000000000000000000000000000000000000000000081526004016108689061234e565b60405180910390fd5b600a60003373ffffffffffffffffffffffffffffffffffffffff1673ffffffffffffffffffffffffffffffffffffffff16815260200190815260200160002060009054906101000a900460ff166108fd576040517f08c379a00000000000000000000000000000000000000000000000000000000081526004016108f4906123ba565b60405180910390fd5b6000610908336109cc565b90506000600a60003373ffffffffffffffffffffffffffffffffffffffff1673ffffffffffffffffffffffffffffffffffffffff16815260200190815260200160002060006101000a81548160ff02191690831515021790555080600b600082825461097491906123da565b925050819055503373ffffffffffffffffffffffffffffffffffffffff167fd287d65f00b2945fc3950b18fff794f7b1d3f13703488ce8fba053f692af59a4826040516109c19190611bc4565b60405180910390a250565b60008060008373ffffffffffffffffffffffffffffffffffffffff1673ffffffffffffffffffffffffffffffffffffffff168152602001908152602001600020549050919050565b610a1c6113d5565b610a2660006115e5565b565b60085481565b600b5481565b6000600560009054906101000a900473ffffffffffffffffffffffffffffffffffffffff16905090565b606060048054610a6d9061201f565b80601f0160208091040260200160405190810160405280929190818152602001828054610a999061201f565b8015610ae65780601f10610abb57610100808354040283529160200191610ae6565b820191906000526020600020905b815481529060010190602001808311610ac957829003601f168201915b5050505050905090565b600080610afb6113bb565b9050610b088185856114f1565b600191505092915050565b60006002811115610b2757610b26611dc3565b5b600560149054906101000a900460ff166002811115610b4957610b48611dc3565b5b14610b89576040517f08c379a0000000000000000000000000000000000000000000000000000000008152600401610b8090612480565b60405180910390fd5b6000610b94336109cc565b11610bd4576040517f08c379a0000000000000000000000000000000000000000000000000000000008152600401610bcb90612512565b60405180910390fd5b600a60003373ffffffffffffffffffffffffffffffffffffffff1673ffffffffffffffffffffffffffffffffffffffff16815260200190815260200160002060009054906101000a900460ff1615610c61576040517f08c379a0000000000000000000000000000000000000000000000000000000008152600401610c589061257e565b60405180910390fd5b6000610c6c336109cc565b90506001600a60003373ffffffffffffffffffffffffffffffffffffffff1673ffffffffffffffffffffffffffffffffffffffff16815260200190815260200160002060006101000a81548160ff02191690831515021790555080600b6000828254610cd8919061259e565b925050819055503373ffffffffffffffffffffffffffffffffffffffff167f4d99b957a2bc29a30ebd96a7be8e68fe50a3c701db28a91436490b7d53870ca482604051610d259190611bc4565b60405180910390a26032600754610d3c91906125d2565b6064600b54610d4b91906125d2565b1115610db6576001600560146101000a81548160ff02191690836002811115610d7757610d76611dc3565b5b02179055507ffea76fe19e9e738bf80898c91d820014fca8b628a8e2fbc08967476590eec23d600b54604051610dad9190611bc4565b60405180910390a15b50565b600280811115610dcc57610dcb611dc3565b5b600560149054906101000a900460ff166002811115610dee57610ded611dc3565b5b14610e2e576040517f08c379a0000000000000000000000000000000000000000000000000000000008152600401610e2590612660565b60405180910390fd5b6000610e39336109cc565b905060008111610e7e576040517f08c379a0000000000000000000000000000000000000000000000000000000008152600401610e75906126cc565b60405180910390fd5b600060095482610e8e91906125d2565b9050610e9a33836116ab565b600660009054906101000a900473ffffffffffffffffffffffffffffffffffffffff1673ffffffffffffffffffffffffffffffffffffffff1663a9059cbb33836040518363ffffffff1660e01b8152600401610ef79291906126ec565b6020604051808303816000875af1158015610f16573d6000803e3d6000fd5b505050506040513d601f19601f82011682018060405250810190610f3a91906121b1565b610f79576040517f08c379a0000000000000000000000000000000000000000000000000000000008152600401610f7090612761565b60405180910390fd5b3373ffffffffffffffffffffffffffffffffffffffff167ff04e46fc38f9d8a4a615b73767e58cc1c3d1b5076e28b3ff084747214584451f8383604051610fc19291906122d9565b60405180910390a25050565b60075481565b60006002811115610fe757610fe6611dc3565b5b600560149054906101000a900460ff16600281111561100957611008611dc3565b5b14611049576040517f08c379a0000000000000000000000000000000000000000000000000000000008152600401611040906127cd565b60405180910390fd5b6000811161108c576040517f08c379a000000000000000000000000000000000000000000000000000000000815260040161108390612839565b60405180910390fd5b60075481611098610793565b6110a2919061259e565b11156110e3576040517f08c379a00000000000000000000000000000000000000000000000000000000081526004016110da906128cb565b60405180910390fd5b6000816110ef336109cc565b6110f9919061259e565b905060006064603260075461110e91906125d2565b61111891906122a8565b90508082111561115d576040517f08c379a00000000000000000000000000000000000000000000000000000000081526004016111549061295d565b60405180910390fd5b60006008548461116d91906125d2565b9050600660009054906101000a900473ffffffffffffffffffffffffffffffffffffffff1673ffffffffffffffffffffffffffffffffffffffff166323b872dd3330846040518463ffffffff1660e01b81526004016111ce9392919061214e565b6020604051808303816000875af11580156111ed573d6000803e3d6000fd5b505050506040513d601f19601f8201168201806040525081019061121191906121b1565b611250576040517f08c379a0000000000000000000000000000000000000000000000000000000008152600401611247906129c9565b60405180910390fd5b61125a338561172d565b3373ffffffffffffffffffffffffffffffffffffffff167fc55650ccda1011e1cdc769b1fbf546ebb8c97800b6072b49e06cd560305b1d67856040516112a09190611bc4565b60405180910390a250505050565b6000600160008473ffffffffffffffffffffffffffffffffffffffff1673ffffffffffffffffffffffffffffffffffffffff16815260200190815260200160002060008373ffffffffffffffffffffffffffffffffffffffff1673ffffffffffffffffffffffffffffffffffffffff16815260200190815260200160002054905092915050565b61133d6113d5565b600073ffffffffffffffffffffffffffffffffffffffff168173ffffffffffffffffffffffffffffffffffffffff16036113af5760006040517f1e4fbdf70000000000000000000000000000000000000000000000000000000081526004016113a69190611f95565b60405180910390fd5b6113b8816115e5565b50565b600033905090565b6113d083838360016117af565b505050565b6113dd6113bb565b73ffffffffffffffffffffffffffffffffffffffff166113fb610a34565b73ffffffffffffffffffffffffffffffffffffffff161461145a5761141e6113bb565b6040517f118cdaa70000000000000000000000000000000000000000000000000000000081526004016114519190611f95565b60405180910390fd5b565b600061146884846112ae565b90507fffffffffffffffffffffffffffffffffffffffffffffffffffffffffffffffff8110156114eb57818110156114db578281836040517ffb8f41b20000000000000000000000000000000000000000000000000000000081526004016114d2939291906129e9565b60405180910390fd5b6114ea848484840360006117af565b5b50505050565b600073ffffffffffffffffffffffffffffffffffffffff168373ffffffffffffffffffffffffffffffffffffffff16036115635760006040517f96c6fd1e00000000000000000000000000000000000000000000000000000000815260040161155a9190611f95565b60405180910390fd5b600073ffffffffffffffffffffffffffffffffffffffff168273ffffffffffffffffffffffffffffffffffffffff16036115d55760006040517fec442f050000000000000000000000000000000000000000000000000000000081526004016115cc9190611f95565b60405180910390fd5b6115e0838383611986565b505050565b6000600560009054906101000a900473ffffffffffffffffffffffffffffffffffffffff16905081600560006101000a81548173ffffffffffffffffffffffffffffffffffffffff021916908373ffffffffffffffffffffffffffffffffffffffff1602179055508173ffffffffffffffffffffffffffffffffffffffff168173ffffffffffffffffffffffffffffffffffffffff167f8be0079c531659141344cd1fd0a4f28419497f9722a3daafe3b4186f6b6457e060405160405180910390a35050565b600073ffffffffffffffffffffffffffffffffffffffff168273ffffffffffffffffffffffffffffffffffffffff160361171d5760006040517f96c6fd1e0000000000000000000000000000000000000000000000000000000081526004016117149190611f95565b60405180910390fd5b61172982600083611986565b5050565b600073ffffffffffffffffffffffffffffffffffffffff168273ffffffffffffffffffffffffffffffffffffffff160361179f5760006040517fec442f050000000000000000000000000000000000000000000000000000000081526004016117969190611f95565b60405180910390fd5b6117ab60008383611986565b5050565b600073ffffffffffffffffffffffffffffffffffffffff168473ffffffffffffffffffffffffffffffffffffffff16036118215760006040517fe602df050000000000000000000000000000000000000000000000000000000081526004016118189190611f95565b60405180910390fd5b600073ffffffffffffffffffffffffffffffffffffffff168373ffffffffffffffffffffffffffffffffffffffff16036118935760006040517f94280d6200000000000000000000000000000000000000000000000000000000815260040161188a9190611f95565b60405180910390fd5b81600160008673ffffffffffffffffffffffffffffffffffffffff1673ffffffffffffffffffffffffffffffffffffffff16815260200190815260200160002060008573ffffffffffffffffffffffffffffffffffffffff1673ffffffffffffffffffffffffffffffffffffffff168152602001908152602001600020819055508015611980578273ffffffffffffffffffffffffffffffffffffffff168473ffffffffffffffffffffffffffffffffffffffff167f8c5be1e5ebec7d5bd14f71427d1e84f3dd0314c0f7b2291e5b200ac8c7c3b925846040516119779190611bc4565b60405180910390a35b50505050565b600073ffffffffffffffffffffffffffffffffffffffff168373ffffffffffffffffffffffffffffffffffffffff16036119d85780600260008282546119cc919061259e565b92505081905550611aab565b60008060008573ffffffffffffffffffffffffffffffffffffffff1673ffffffffffffffffffffffffffffffffffffffff16815260200190815260200160002054905081811015611a64578381836040517fe450d38c000000000000000000000000000000000000000000000000000000008152600401611a5b939291906129e9565b60405180910390fd5b8181036000808673ffffffffffffffffffffffffffffffffffffffff1673ffffffffffffffffffffffffffffffffffffffff16815260200190815260200160002081905550505b600073ffffffffffffffffffffffffffffffffffffffff168273ffffffffffffffffffffffffffffffffffffffff1603611af45780600260008282540392505081905550611b41565b806000808473ffffffffffffffffffffffffffffffffffffffff1673ffffffffffffffffffffffffffffffffffffffff168152602001908152602001600020600082825401925050819055505b8173ffffffffffffffffffffffffffffffffffffffff168373ffffffffffffffffffffffffffffffffffffffff167fddf252ad1be2c89b69c2b068fc378daa952ba7f163c4a11628f55a4df523b3ef83604051611b9e9190611bc4565b60405180910390a3505050565b6000819050919050565b611bbe81611bab565b82525050565b6000602082019050611bd96000830184611bb5565b92915050565b600081519050919050565b600082825260208201905092915050565b60005b83811015611c19578082015181840152602081019050611bfe565b60008484015250505050565b6000601f19601f8301169050919050565b6000611c4182611bdf565b611c4b8185611bea565b9350611c5b818560208601611bfb565b611c6481611c25565b840191505092915050565b60006020820190508181036000830152611c898184611c36565b905092915050565b600080fd5b600073ffffffffffffffffffffffffffffffffffffffff82169050919050565b6000611cc182611c96565b9050919050565b611cd181611cb6565b8114611cdc57600080fd5b50565b600081359050611cee81611cc8565b92915050565b611cfd81611bab565b8114611d0857600080fd5b50565b600081359050611d1a81611cf4565b92915050565b60008060408385031215611d3757611d36611c91565b5b6000611d4585828601611cdf565b9250506020611d5685828601611d0b565b9150509250929050565b60008115159050919050565b611d7581611d60565b82525050565b6000602082019050611d906000830184611d6c565b92915050565b600060208284031215611dac57611dab611c91565b5b6000611dba84828501611cdf565b91505092915050565b7f4e487b7100000000000000000000000000000000000000000000000000000000600052602160045260246000fd5b60038110611e0357611e02611dc3565b5b50565b6000819050611e1482611df2565b919050565b6000611e2482611e06565b9050919050565b611e3481611e19565b82525050565b6000602082019050611e4f6000830184611e2b565b92915050565b600060208284031215611e6b57611e6a611c91565b5b6000611e7984828501611d0b565b91505092915050565b600080600060608486031215611e9b57611e9a611c91565b5b6000611ea986828701611cdf565b9350506020611eba86828701611cdf565b9250506040611ecb86828701611d0b565b9150509250925092565b6000819050919050565b6000611efa611ef5611ef084611c96565b611ed5565b611c96565b9050919050565b6000611f0c82611edf565b9050919050565b6000611f1e82611f01565b9050919050565b611f2e81611f13565b82525050565b6000602082019050611f496000830184611f25565b92915050565b600060ff82169050919050565b611f6581611f4f565b82525050565b6000602082019050611f806000830184611f5c565b92915050565b611f8f81611cb6565b82525050565b6000602082019050611faa6000830184611f86565b92915050565b60008060408385031215611fc757611fc6611c91565b5b6000611fd585828601611cdf565b9250506020611fe685828601611cdf565b9150509250929050565b7f4e487b7100000000000000000000000000000000000000000000000000000000600052602260045260246000fd5b6000600282049050600182168061203757607f821691505b60208210810361204a57612049611ff0565b5b50919050565b7f4173736574546f6b656e3a204173736574206e6f7420726561647920666f722060008201527f73616c6500000000000000000000000000000000000000000000000000000000602082015250565b60006120ac602483611bea565b91506120b782612050565b604082019050919050565b600060208201905081810360008301526120db8161209f565b9050919050565b7f416d6f756e74206d757374206265203e20300000000000000000000000000000600082015250565b6000612118601283611bea565b9150612123826120e2565b602082019050919050565b600060208201905081810360008301526121478161210b565b9050919050565b60006060820190506121636000830186611f86565b6121706020830185611f86565b61217d6040830184611bb5565b949350505050565b61218e81611d60565b811461219957600080fd5b50565b6000815190506121ab81612185565b92915050565b6000602082840312156121c7576121c6611c91565b5b60006121d58482850161219c565b91505092915050565b7f5472616e73666572206661696c65640000000000000000000000000000000000600082015250565b6000612214600f83611bea565b915061221f826121de565b602082019050919050565b6000602082019050818103600083015261224381612207565b9050919050565b7f4e487b7100000000000000000000000000000000000000000000000000000000600052601260045260246000fd5b7f4e487b7100000000000000000000000000000000000000000000000000000000600052601160045260246000fd5b60006122b382611bab565b91506122be83611bab565b9250826122ce576122cd61224a565b5b828204905092915050565b60006040820190506122ee6000830185611bb5565b6122fb6020830184611bb5565b9392505050565b7f4173736574546f6b656e3a2043616e6e6f7420756e766f7465206e6f77000000600082015250565b6000612338601d83611bea565b915061234382612302565b602082019050919050565b600060208201905081810360008301526123678161232b565b9050919050565b7f4173736574546f6b656e3a2048617665206e6f7420766f746564207965740000600082015250565b60006123a4601e83611bea565b91506123af8261236e565b602082019050919050565b600060208201905081810360008301526123d381612397565b9050919050565b60006123e582611bab565b91506123f083611bab565b925082820390508181111561240857612407612279565b5b92915050565b7f4173736574546f6b656e3a20416c726561647920666f722073616c65206f722060008201527f736f6c6400000000000000000000000000000000000000000000000000000000602082015250565b600061246a602483611bea565b91506124758261240e565b604082019050919050565b600060208201905081810360008301526124998161245d565b9050919050565b7f4173736574546f6b656e3a204d75737420686f6c6420746f6b656e7320746f2060008201527f766f746500000000000000000000000000000000000000000000000000000000602082015250565b60006124fc602483611bea565b9150612507826124a0565b604082019050919050565b6000602082019050818103600083015261252b816124ef565b9050919050565b7f4173736574546f6b656e3a20416c726561647920766f74656400000000000000600082015250565b6000612568601983611bea565b915061257382612532565b602082019050919050565b600060208201905081810360008301526125978161255b565b9050919050565b60006125a982611bab565b91506125b483611bab565b92508282019050808211156125cc576125cb612279565b5b92915050565b60006125dd82611bab565b91506125e883611bab565b92508282026125f681611bab565b9150828204841483151761260d5761260c612279565b5b5092915050565b7f4173736574546f6b656e3a204173736574206e6f742079657420736f6c640000600082015250565b600061264a601e83611bea565b915061265582612614565b602082019050919050565b600060208201905081810360008301526126798161263d565b9050919050565b7f4173736574546f6b656e3a204e6f20546f6b656e7320746f2072656465656d00600082015250565b60006126b6601f83611bea565b91506126c182612680565b602082019050919050565b600060208201905081810360008301526126e5816126a9565b9050919050565b60006040820190506127016000830185611f86565b61270e6020830184611bb5565b9392505050565b7f4173736574546f6b656e3a205472616e73666572206661696c65640000000000600082015250565b600061274b601b83611bea565b915061275682612715565b602082019050919050565b6000602082019050818103600083015261277a8161273e565b9050919050565b7f4173736574546f6b656e3a204e6f74206f70656e20666f722073616c65000000600082015250565b60006127b7601d83611bea565b91506127c282612781565b602082019050919050565b600060208201905081810360008301526127e6816127aa565b9050919050565b7f4173736574546f6b656e3a20416d6f756e74206d757374206265203e20300000600082015250565b6000612823601e83611bea565b915061282e826127ed565b602082019050919050565b6000602082019050818103600083015261285281612816565b9050919050565b7f4173736574546f6b656e3a20536f6c64206f7574202f204e6f7420656e6f756760008201527f6820746f6b656e73206c65667400000000000000000000000000000000000000602082015250565b60006128b5602d83611bea565b91506128c082612859565b604082019050919050565b600060208201905081810360008301526128e4816128a8565b9050919050565b7f4173736574546f6b656e3a2045786365656420353025206f776e65727368697060008201527f206c696d69740000000000000000000000000000000000000000000000000000602082015250565b6000612947602683611bea565b9150612952826128eb565b604082019050919050565b600060208201905081810360008301526129768161293a565b9050919050565b7f4173736574546f6b656e3a205061796d656e74206661696c6564000000000000600082015250565b60006129b3601a83611bea565b91506129be8261297d565b602082019050919050565b600060208201905081810360008301526129e2816129a6565b9050919050565b60006060820190506129fe6000830186611f86565b612a0b6020830185611bb5565b612a186040830184611bb5565b94935050505056fea264697066735822122091308f823a7be6e700448cb20b0d0d6104d0caeee258c4edc4c3fd38524d21c864736f6c634300081c0033a26469706673582212205ec0e14e29d4c403b56d3b15caebd70aaeb37d0d7619d68f471df2e692ea52d564736f6c634300081c0033",
  "linkReferences": {},
  "deployedLinkReferences": {}
}